:1000000023C032C031C030C02FC0CFC02DC02CC0E3
:100010002BC02AC029C028C027C026C025C0000088
:100020000000370000000000380002020202020255
:10003000020202020102040810202004100801023A
:10004000000004000000000011241FBECFE5D2E034
:10005000DEBFCDBF20E0A0E6B0E001C01D92AE360D
:10006000B207E1F7ECD0A0C1CBCFEEE3F0E02491F2
:10007000E4E3F0E09491EAE2F0E0E491EE2349F168
:10008000222399F0223071F028F4213071F42AB53E
:100090002F770AC0233011F0243039F42CB52F7D8E
:1000A0002CBD03C02AB52F7D2ABDF0E0EE0FFF1F47
:1000B000EC5DFF4FA591B4912FB7F894811105C065
:1000C0008C91E92FE095E82302C0EC91E92BEC93A9
:1000D0002FBF0895E4E3F0E04491EAE2F0E02491D8
:1000E000222399F030E0220F331FF901E25EFF4F27
:1000F000A591B491F901EC5DFF4F259134912FB793
:10010000F894EC91E42BEC932FBF009711F480E06E
:1001100004C08F3F910511F481E0A7CFEEE3F0E03A
:10012000E491E23089F038F4E130C1F49AB5906896
:100130009ABD89BD0895E33061F0E43079F49CB54F
:1001400090629CBD8BBD08959AB590629ABD88BDA2
:1001500008959CB590629CBD8EBD08958038910530
:10016000DCF6D5CF2FB7F8946091650070916600EA
:1001700080916700909168002FBF0895CF92DF9221
:10018000EF92FF92EFDF6B017C012AE0C20ED11CDF
:10019000E11CF11CE7DF6C157D058E059F05D0F392
:1001A000FF90EF90DF90CF9008951F920F920FB6BF
:1001B0000F9211242F933F938F939F93AF93BF93ED
:1001C0008091650090916600A0916700B0916800F1
:1001D0003091640020E3230F2D3720F44096A11DB9
:1001E000B11D05C023EB230F4196A11DB11D209326
:1001F00064008093650090936600A0936700B093BD
:1002000068008091600090916100A0916200B091BF
:1002100063000196A11DB11D809360009093610061
:10022000A0936200B0936300BF91AF919F918F91B3
:100230003F912F910F900FBE0F901F9018957894BB
:100240008AB582608ABD8AB581608ABD83B78260C3
:1002500083BF83B7816083BF89B7826089BF80B75E
:10026000826080BF3298319A309A379A8CB5806418
:100270008CBDB89AC098BB98BC9885E090E07ED0C1
:1002800080936D00803518F480E580936D00C0E5A3
:1002900080916D00C81730F48C2F90E01BDF6EDF6B
:1002A000CF5FF6CF90E016DF5DDF6093690070935B
:1002B0006A0080936B0090936C0000E010E0DFEF29
:1002C00080E5F82EB39B11C0CFE0B39B0EC056DF84
:1002D000C150D9F780916D00282F30E0263F3105BD
:1002E0000CF046C0865F80936D00B49B10C0CFE0D9
:1002F000B49B0DC043DFC150D9F780916D00282F0A
:1003000030E02A353105BCF18A5080936D00C091F0
:100310006D008C2F90E0DEDE25DF809069009090EC
:100320006A00A0906B00B0906C0020E3820E25E77D
:10033000921EA11CB11C86169706A806B90690F459
:1003400085E090E01BD0C81721F06C2F85E090E08D
:100350001DD008DF6093690070936A0080936B0082
:1003600090936C000115110509F4ACCF49DEAACFBA
:10037000D0936D00BACFF0926D00C9CFE199FECF56
:100380009FBB8EBBE09A99278DB30895262FE199E4
:10039000FECF1CBA9FBB8EBB2DBB0FB6F894E29A62
:0C03A000E19A0FBE01960895F894FFCF7B
:00000001FF
